:020000040800F2
:1000000000200020E1240008112400081524000825
:1000100000000000000000000000000000000000E0
:10002000000000000000000000000000192400088B
:1000300000000000000000001D240008212400082A
:100040003125000800000000312500083125000896
:100050003125000831250008312500083125000828
:100060000000000031250008312500083125000876
:100070003125000831250008312500080000000066
:10008000312500085924000800000000312500082F
:1000900031250008312500086924000831250008B1
:1000A0003125000831250008312500087924000891
:1000B000892400080000000000000000000000008B
:1000C00010B5064C2378002B07D1054B002B02D02E
:1000D000044800E000BF0123237010BDC0000020D1
:1000E00000000000E4540008044B10B5002B03D0BE
:1000F0000349044800E000BF10BDC04600000000F6
:10010000C4000020E45400080023C25C0133002A2C
:10011000FBD1581E7047000003B4714649084000E7
:100120004900095E49008E4403BC70470022430821
:100130008B4274D303098B425FD3030A8B4244D3AF
:10014000030B8B4228D3030C8B420DD3FF220902F1
:1001500012BA030C8B4202D31212090265D0030BB0
:100160008B4219D300E0090AC30B8B4201D3CB03A6
:10017000C01A5241830B8B4201D38B03C01A5241E8
:10018000430B8B4201D34B03C01A5241030B8B42EA
:1001900001D30B03C01A5241C30A8B4201D3CB02D5
:1001A000C01A5241830A8B4201D38B02C01A5241BA
:1001B000430A8B4201D34B02C01A5241030A8B42BD
:1001C00001D30B02C01A5241CDD2C3098B4201D3D5
:1001D000CB01C01A524183098B4201D38B01C01A53
:1001E000524143098B4201D34B01C01A52410309CA
:1001F0008B4201D30B01C01A5241C3088B4201D379
:10020000CB00C01A524183088B4201D38B00C01A25
:10021000524143088B4201D34B00C01A5241411A4C
:1002200000D20146524110467047FFE701B5002059
:1002300000F0F0F802BDC0460029F7D076E770471D
:1002400003460B437FD4002243088B4274D3030937
:100250008B425FD3030A8B4244D3030B8B4228D3D8
:10026000030C8B420DD3FF22090212BA030C8B42FE
:1002700002D31212090265D0030B8B4219D300E09E
:10028000090AC30B8B4201D3CB03C01A5241830B23
:100290008B4201D38B03C01A5241430B8B4201D3D3
:1002A0004B03C01A5241030B8B4201D30B03C01AFC
:1002B0005241C30A8B4201D3CB02C01A5241830A76
:1002C0008B4201D38B02C01A5241430A8B4201D3A5
:1002D0004B02C01A5241030A8B4201D30B02C01ACF
:1002E0005241CDD2C3098B4201D3CB01C01A524136
:1002F00083098B4201D38B01C01A524143098B42BF
:1003000001D34B01C01A524103098B4201D30B01A7
:10031000C01A5241C3088B4201D3CB00C01A5241CC
:1003200083088B4201D38B00C01A524143088B4291
:1003300001D34B00C01A5241411A00D2014652412A
:10034000104670475DE0CA0F00D04942031000D349
:100350004042534000229C4603098B422DD3030A9E
:100360008B4212D3FC22890112BA030A8B420CD3AE
:10037000890192118B4208D3890192118B4204D3D7
:1003800089013AD0921100E08909C3098B4201D357
:10039000CB01C01A524183098B4201D38B01C01A91
:1003A000524143098B4201D34B01C01A5241030908
:1003B0008B4201D30B01C01A5241C3088B4201D3B7
:1003C000CB00C01A524183088B4201D38B00C01A64
:1003D0005241D9D243088B4201D34B00C01A52413B
:1003E000411A00D20146634652415B10104601D3C8
:1003F0004042002B00D54942704763465B1000D352
:10040000404201B5002000F005F802BD0029F8D0F7
:1004100016E770477047C04670B5060008000D002B
:10042000FFF772FEC0B200280BD0002303E00133B7
:10043000DAB2824205D2F45CEA5C9442F7D0002042
:1004400000E0012070BDC046F0B5DE464E4657467E
:1004500045460023E0B5BBB0C422002109A89B4655
:10046000089304F0B9FB5A23D14EF25A092A05D851
:10047000C822D04DF252023BF25275655A23F75A08
:10048000FBB21A00019338235B429B1ADBB2002BAC
:1004900017D000240022002758461900C54D05E05A
:1004A0002A2B15D00134E7B2B9420AD9635D3A2B41
:1004B000F6D1002AF6D101343800E7B20122B94260
:1004C000F4D83BB0F0BCBB46B246A946A046F0BD4E
:1004D000012AE7D100238A46411C2B54C9B22B556F
:1004E00008AB834602009846B94209D2BA1A081AE4
:1004F000023A0138D2B240440132491904F0A0FB5B
:1005000053464344033B1B78232B7FD03A23019A65
:100510005B429B1A5BB29C4205DDC8235A22B35250
:10052000023AB3527565142001F076FA43461B78FF
:10053000652B31D143465B78652B00D0C0E1434643
:100540009B78702B00D0BBE1FA23012230009A493E
:100550005B0003F09FFD00231421984A03A804F0D8
:1005600007FB03A8FFF7D0FDFA2382B203A93000EE
:100570005B0003F08FFDFA23012291495B003000FC
:1005800003F088FD00F044FFFA23102230008D496B
:100590005B0003F07FFD94E7642B00D09AE04346B4
:1005A0005B78612B00D08BE143469B78742B00D0A5
:1005B00086E1FA23012230007F495B0003F06AFDE7
:1005C000012314217D4A03A804F0D2FA03A8FFF7FF
:1005D0009BFDFA2382B203A930005B0003F05AFDB1
:1005E000FA23012276495B00300003F053FD00F04E
:1005F00077FE4246744BD2781A80424612795A806E
:1006000042465279DA8100F0ADFD5AE75B46414639
:10061000FB1A013BDBB21A1F8818895C642230394F
:100620004A438178407830393038521881000918AF
:100630004900521892B2934601221100073B19401B
:100640008A461A4273D05B080133DBB29C4663468C
:10065000002B00D1E6E001235B42634402AA9146ED
:100660001F0000221B2361464B44A446A946544662
:100670000020B24615000AE0002C0AD01A78303A61
:10068000AD18ADB20130C2B202338A420CD2B842C8
:10069000F2DA1E78303EB20092195E785200303E97
:1006A0009219AD18ADB2EDE72A00644656464D46A4
:1006B0005B46934200D129E7C8235A22B352023A3B
:1006C000B3522D3330004149FF334F3A756503F083
:1006D000E1FCF6E6472B2ED143465B78642B00D035
:1006E000EEE043469B78612B00D0E9E0FA2301223B
:1006F000300031495B0003F0CDFC2D2314212F4A3B
:1007000003A804F035FA03A8FFF7FEFCFA2382B22F
:1007100003A930005B0003F0BDFCFA230122284945
:100720005B00300003F0B6FC01F02AF8C9E65B0874
:10073000DBB29C468BE7722B4AD143465B78652B34
:1007400000D0BDE043469B78712B00D0B8E0FA237F
:100750000122300018495B0003F09CFC2E23142179
:10076000164A03A804F004FA03A8FFF7CDFCFA2305
:1007700082B203A930005B0003F08CFCFA23012253
:1007800030000F495B0003F085FC434602AA944603
:1007900059791B23634458781A780002104340BAF1
:1007A00080B201F01FF8142001F036F989E6C04646
:1007B00054030020DC0000203455000838550008A0
:1007C0003C55000840550008A401002028550008A9
:1007D000502B29D143465B78612B71D143469B78DE
:1007E000732B6DD10224FA230122300030495B00C3
:1007F00003F050FC230014212E4A03A804F0B8F99A
:1008000003A8FFF781FCFA2382B203A930005B0042
:1008100003F040FCFA230122300027495B0003F07B
:1008200039FC4EE6002243E7742B34D143465B7813
:10083000692B45D143469B786D2B41D1FA23012288
:1008400030001B495B0003F025FC03231421194AE7
:1008500003A804F08DF903A8FFF756FCFA2382B22F
:1008600003A930005B0003F015FCFA2301221249B2
:100870005B00300003F00EFC00F0EEFC42460F4B34
:10088000D2789A8042461279DA80424652791A81A9
:1008900000F068FC15E6492B12D143465B786E2BBD
:1008A0000ED143469B78742B0AD104249BE7C046A3
:1008B00034550008385500083C550008A4010020B4
:1008C0004046DA49FFF7A8FD002800D058E140462D
:1008D000D749FFF7A1FD002800D075E14046D54972
:1008E000FFF79AFD0724002800D07CE74046D24954
:1008F000FFF792FD0134002800D074E74046CF494D
:10090000FFF78AFD2A34002800D06CE74046CC4926
:10091000FFF782FD033C002800D064E74046C94948
:10092000FFF77AFD0234002800D05CE74046C64954
:10093000FFF772FD283C002800D054E74046C34929
:10094000FFF76AFD0134002800D04CE74046C0495B
:10095000FFF762FD0134002800D044E74046BD495E
:10096000FFF75AFD0134002800D03CE74046BA4961
:10097000FFF752FD0134002800D034E74046B74964
:10098000FFF74AFD0134002800D02CE74046B44967
:10099000FFF742FD0134002800D024E74046B1496A
:1009A000FFF73AFD0134002800D01CE74046AE496D
:1009B000FFF732FD0134002800D014E74046AB4970
:1009C000FFF72AFD0134002800D00CE74046A84973
:1009D000FFF722FD0134002800D004E74046A54976
:1009E000FFF71AFD0134002800D0FCE64046A2497A
:1009F000FFF712FD0134002800D0F4E640469F497D
:100A0000FFF70AFD0134002800D0ECE640469C497F
:100A1000FFF702FD0134002800D0E4E64046994982
:100A2000FFF7FAFC0134002800D0DCE64046964986
:100A3000FFF7F2FC0134002800D0D4E64046934989
:100A4000FFF7EAFC0134002800D0CCE6404690498C
:100A5000FFF7E2FC0234002800D0C4E640468D498E
:100A6000FFF7DAFC0134002800D0BCE640468A4992
:100A7000FFF7D2FC0134002800D0B4E64046874995
:100A8000FFF7CAFC0134002800D0ACE64046844998
:100A9000FFF7C2FC0134002800D0A4E6404681499B
:100AA000FFF7BAFC053C002800D09CE640467E4992
:100AB000FFF7B2FC0634002800D094E640467B499C
:100AC000FFF7AAFC0134002800D08CE640467849A4
:100AD000FFF7A2FC0134002800D084E640467549A7
:100AE000FFF79AFC0134002800D07CE640467249AA
:100AF000FFF792FC0134002800D074E640466F49AD
:100B0000FFF78AFC0134002800D06CE640466C49AF
:100B1000FFF782FC0134002800D064E640466949B2
:100B2000FFF77AFC0134002800D05CE640466649B5
:100B3000FFF772FC0134002800D054E640466349B8
:100B4000FFF76AFC0134002800D04CE640466049BB
:100B5000FFF762FC0134002800D044E640465D49BE
:100B6000FFF75AFC0834002800D03CE640465A49BA
:100B7000FFF752FC1F3C002800D034E6183432E660
:100B8000FA230122300055495B0003F083FA052364
:100B90001421534A03A803F0EBFF03A8FFF7B4FAAC
:100BA000FA2382B203A930005B0003F073FAFA2340
:100BB00001224C495B00300003F06CFA00F006FFA4
:100BC000142000F029FF7CE4FA230122300043497D
:100BD0005B0003F05FFA06231421414A03A803F0E7
:100BE000C7FF03A8FFF790FAFA2382B203A93000E7
:100BF0005B0003F04FFAFA230122300039495B0011
:100C000003F048FA43464246D8781B7909A93033A5
:100C10001371537930335371937930339371D3799E
:100C20003033D37100F0B6FE4BE4C04600560008E6
:100C300054550008585500085C55000860550008D8
:100C400064550008685500086C5500087055000888
:100C500074550008785500087C5500088055000838
:100C600084550008885500088C55000890550008E8
:100C700094550008985500089C550008A055000898
:100C8000A4550008A8550008AC550008B055000848
:100C9000B4550008B8550008BC550008C0550008F8
:100CA000C4550008C8550008CC550008D0550008A8
:100CB000D4550008D8550008DC550008E055000858
:100CC000E4550008E8550008EC550008F055000808
:100CD000F4550008F8550008FC5500083455000884
:100CE000385500083C550008FA2310B5034C0A009B
:100CF00001005B00200003F0CDF910BD540300207B
:100D000070B501252A0004000C4E0240012130007C
:100D100001F022FE620830002A40022101F01CFE90
:100D2000A2082A400421064801F016FEE20830001D
:100D30002A40082101F010FE70BDC04600040048A2
:100D4000000C004870B50500134C00221021200053
:100D500001F002FE2809FFF7D3FF01222021200025
:100D600001F0FAFD022001F02DFC002220212000DC
:100D700001F0F2FD2800FFF7C3FF0122202120002F
:100D800001F0EAFD022001F01DFC002220212000DC
:100D900001F0E2FD70BDC0460008004870B50500D6
:100DA000134C01221021200001F0D6FD2809FFF785
:100DB000A7FF01222021200001F0CEFD022001F03A
:100DC00001FC00222021200001F0C6FD2800FFF7D1
:100DD00097FF01222021200001F0BEFD022001F03A
:100DE000F1FB00222021200001F0B6FD70BDC046BD
:100DF0000008004870B5564C282001F0E3FB554E22
:100E000020000122012101F0A7FD20000122022182
:100E1000514D01F0A1FD30000022042101F09CFDA4
:100E200020000022082101F097FD28000122202146
:100E300001F092FD022001F0C5FB280000222021D4
:100E400001F08AFD052001F0BDFB200001220121F7
:100E500001F082FD20000122022101F07DFD300021
:100E60000022042101F078FD20000022082101F079
:100E700073FD28000122202101F06EFD022001F007
:100E8000A1FB28000022202101F066FD012001F0D5
:100E900099FB20000122012101F05EFD20000122CA
:100EA000022101F059FD30000022042101F054FD1F
:100EB00020000022082101F04FFD280001222021FE
:100EC00001F04AFD022001F07DFB280000222021D4
:100ED00001F042FD012001F075FB200000220121FC
:100EE00001F03AFD20000122022101F035FD300021
:100EF0000022042101F030FD20000022082101F031
:100F00002BFD28000122202101F026FD022001F006
:100F100059FB00222021280001F01EFD012001F0D4
:100F200051FB2820FFF70EFF0820FFF70BFF0120E1
:100F3000FFF708FF022001F045FB0620FFF702FF44
:100F40000C20FFF7FFFE0120FFF7FCFE70BDC0463E
:100F500000040048000C00480008004870B5061E58
:100F60002FD005780024002D29D001221021164809
:100F700001F0F2FC2809FFF7C3FE012220211248EC
:100F800001F0EAFC022001F01DFB002220210E48A6
:100F900001F0E2FC2800FFF7B3FE012220210A48FD
:100FA00001F0DAFC0134022001F00CFBE4B2002273
:100FB0002021054801F0D0FC355D002DD5D1012060
:100FC00070BD0220FCE7C04600080048F0B50600EE
:100FD00085B0002843D03DDB002401AD30000A215C
:100FE000FFF714FA3000CFB20A21FFF729F93037A2
:100FF0002F5501340600E4B20028EFD1013C27D37D
:101000002E5D01221021184801F0A6FC3009FFF7DF
:1010100077FE01222021144801F09EFC022001F0FD
:10102000D1FA00222021104801F096FC3000FFF791
:1010300067FE012220210C4801F08EFC022001F005
:10104000C1FA00222021084801F086FC013CD7D2D9
:1010500005B0F0BD2D20FFF7A1FE7642BCE73020A1
:10106000FFF79CFEF4E7C0460008004810B50229CF
:1010700017D009D8002911D0802340305B42184393
:10108000C0B2FFF75FFE10BD032905D180235430A5
:101090005B421843C0B2F4E78020F2E78023184394
:1010A000EFE7802314305B421843C0B2E9E7C04643
:1010B000F0B5CE4647460F2680B50E27002385B0F3
:1010C000264C6F446E443B703370237099466433F2
:1010D0009846234D22000093D0212800633B01F065
:1010E00053FE43463A000093D0212800633B01F0B1
:1010F00033FF7F233A78D02113403B7063704A4618
:1011000043462270280022000093623B01F03CFE1F
:101110000227434622002770D02100932800633B1A
:1011200001F032FE434632000093D0212800633B99
:1011300001F012FF402233782770934333706370BD
:10114000434622000093D0212800623B01F01CFEA0
:1011500005B0C0BCB946B046F0BDC046B8010020DD
:10116000E801002010B57F24384882B00389027955
:101170001C403F2304811340092B09D900220A3B5C
:101180001032DBB2D2B2092BF9D89A18BF23134020
:1011900000212F4A1170E1B2092C08D900240A3924
:1011A0001034C9B2E4B20929F9D80919C9B2517089
:1011B0008179092908D900240A391034C9B2E4B266
:1011C0000929F9D80919C9B29170D370837A092B0A
:1011D00008D900210A3B1031DBB2C9B2092BF9D87A
:1011E0005B18DBB213710378092B08D900210A3B85
:1011F0001031DBB2C9B2092BF9D85B18DBB25371DD
:101200008378092B08D900210A3B1031DBB2C9B21F
:10121000092BF9D85B18DBB29371837B092B08D9B2
:1012200000210A3B1031DBB2C9B2092BF9D8CB1827
:10123000DBB2D37180231372763B0093D021013B44
:10124000044801F0A1FD02B010BDC046A401002079
:10125000B8010020E801002070B503230A261D4CC8
:101260001D4D82B023702200D02128000096023B41
:1012700001F08AFD22000423D0212800009601F00D
:101280006BFE382022781549530818400F231A4066
:1012900082188008121818204A8162785508284060
:1012A0001A4082188008121808200A80A27855086F
:1012B00028401A408218800812184A807822E07864
:1012C000440822400340D31892089B18DBB2CB811C
:1012D00002B070BDB8010020E8010020A401002088
:1012E00070B500236426184C184D82B0237022007C
:1012F000D02128000096013301F046FD220003238F
:10130000D0212800009601F027FE0F2338212278F3
:101310000F4855080D401A40AA18AD08521902810D
:101320006278550829401A408A1889085218C280E4
:101330001822A1784C0822400B40D31892089B1821
:10134000838002B070BDC046B8010020E8010020D3
:10135000A4010020F0B545464E46DE465746E0B5AE
:101360000E0080211500804685B000221D484901ED
:1013700001F0F2FA002D28D01B4B00279B461F23BB
:101380009A462023994653464A463340D31A1C1C9A
:101390009BB2AB4200D92C1C01235B420293434613
:1013A000A4B2DB193200A021009358460223019415
:1013B0002D1B01F09FFEA6190520E719ADB201F023
:1013C00001F9B6B2BFB2002DDDD18021012205485E
:1013D000490101F0C1FA05B0F0BCBB46B246A946CE
:1013E000A046F0BD00040048E8010020012310B52C
:1013F000064C84B05B420293019200900A002000E8
:10140000A021033301F07AFF04B010BDE8010020F1
:1014100030B589B0202200216846FA2503F0DCFBB4
:1014200000242D012100203420226846A4B2FFF7B9
:1014300091FFAC42F6D109B030BDC046F0B5574679
:101440004E464546DE46314BE0B59A461E00304BCF
:10145000002499461D002F4B2F4F98462F4B83B0E9
:101460009B4612E03B78322B09D049465A00895AF4
:1014700052469B00D05801F069FA01283BD0013454
:10148000E4B2043602350A2C2DD02988306801F0E8
:101490005DFA0028E6D143461B78012BE2D101F02A
:1014A0008BF8002301935B4600901A685B680098F4
:1014B0000199801A9941002901D16328D2D9642069
:1014C00001F080F82988306801F040FA0028C9D17D
:1014D00043460500187014203C7000F09DFA01F09E
:1014E0006BF85B4621C3200003B0F0BCBB46B2469C
:1014F000A946A046F0BD4346187032233B7001F068
:101500005BF80022054B18605A60B8E70000002025
:10151000280000203C0000203D000020C8010020E1
:10152000F0B5D6464F464646C0B58B4C8B4D23781A
:1015300084B0012B08D0002323702B7004B0E0BCD2
:10154000BA46B146A846F0BD2B78012B66D0022BD7
:10155000F1D16B4601AF981C01220021FFF746FF35
:10156000380002220221FFF741FF3E88FFF774FE98
:1015700076BAF100891B8BB219000A3138000722B4
:1015800089B29846FFF732FFB878754B75491870E5
:10159000FA785A700E79744B1E708979597033013C
:1015A0009B1B1E01F61A0B015B1A0101091A9B0015
:1015B0003601F6180B015B1AE1211B01F61A130123
:1015C0009B1A9B00F61A30000901FEF7AFFDE121DE
:1015D000C3B2090130009946FEF72EFE08003C21F7
:1015E000FEF7A4FD4A4641460026604BC0B21A7081
:1015F00058700E315E4B3A717871022202A889B29E
:101600001E70FFF7A7FE6B460122D81C0021067052
:10161000FFF7A0FE574802F0C1FB8CE7554802F0E7
:101620008FFB02236B44994618000122002101AE72
:10163000FFF7DCFE022202213000FFF7D7FE3388DD
:101640005BBA9A469FB2FFF707FE4B4B98461A7853
:101650004B461B78934253D1002B51D0444A9146BC
:1016600012789A424ED153465246DB009B1A9BB2E7
:1016700019000A310722300089B29846FFF7B6FEFA
:10168000B078374B37491870F2785A700F79364B6B
:101690001F70897959703B01DB1B1F01FF1A0B0179
:1016A0005B1A0101091A9B003F01FF180B015B1A2D
:1016B000E1211B01FF1A13019B1A9B00FF1A38003E
:1016C0000901FEF733FDE121C3B209013800994653
:1016D000FEF7B2FD08003C21FEF728FD41464B46CF
:1016E000224FC0B20E3102223B707870337170719C
:1016F00089B202A8FFF72EFE204B3A881A801AE71B
:101700001B4B9946404601220021FFF723FE7B1C1C
:101710009FB25BBA3000338002220221FFF71AFE2B
:10172000104B30009A88B270DA88F2700022B280D2
:1017300059881B8831707370434649461B780B707B
:10174000F900B371C91B0D4B0A311A8089B20732F7
:10175000FFF700FEEFE6C046D6010020D7010020CB
:10176000D8010020A4010020DC010020D0010020CD
:10177000DE01002084020020E2010020D4010020CC
:10178000F0B5CE46002300B584B0029303936B46B8
:101790000122D81D0921FFF729FE30230026994692
:1017A00002AD4F46002477430A37BFB20923013404
:1017B0006B44390018000622E4B22C700637FFF79C
:1017C00015FE07212800FFF78FFABFB2082CEDD1D4
:1017D0006B460136DB79F6B2B342E2D204B080BC8C
:1017E000B946F0BDF0B5DE464E4645465746E0B533
:1017F000654B8BB05A69050004926A461B7E894688
:10180000137515236B4413220021180003F0E4F92B
:1018100027216A462A23521801AC137020000222A5
:101820002539FFF7E3FD2488642164BAA4B22000BF
:10183000FEF77CFC24226B4630309B1818700A217E
:101840002000FEF773FC0A2180B2FEF7F5FC25228A
:101850006B4630319B18197020000A21FEF7ECFC12
:101860006B46262230319B181970A54274D24B4624
:10187000641BA4B2002B6FD0E3001C1BA4B2210098
:101880000A31072289B202A8FFF7B0FD6B466A460B
:101890009B7B033430331375A3B29A4600239846DA
:1018A00021336B449B4615236B441D00002602AF79
:1018B0003C780A212000FEF739FC303028700A21DC
:1018C0002000FEF7B9FC3031697036190235B6B226
:1018D0000137AB45ECD164213000FEF727FC212213
:1018E0006B4630309B1818700A213000FEF71EFC42
:1018F0000A2180B2FEF7A0FC22226B4630319B18F1
:10190000197030000A21FEF797FC6B462322303114
:101910009B181970029B002B03D16B469B89002BEF
:1019200003D0182104A8FFF7DFF943464A460133E4
:10193000DBB298469A420FD00722514602A8FFF721
:1019400055FD6B466A469B7B303313755346073B08
:101950009BB29A46032BA6D10C4B07220493152366
:101960006B4418000A4903F06BF923236A460C21E3
:10197000137504A8FFF7B8F90BB0F0BCBB46B2462C
:10198000A946A046F0BDC046FC5400083A757372E3
:1019900004560008030008009900044B10B59C464B
:1019A00004226144FFF7D6FC10BDC046CE0F0000F4
:1019B000030008009900044B10B59C4604226144C2
:1019C000FFF714FD10BDC046CE0F000030B50F4B21
:1019D00083B0042101A80193FFF786F90C4C0D4D4B
:1019E0002100042201A80434FFF700FDA4B2042161
:1019F00001A8FFF779F9AC42F2D16B46D81C2A2333
:101A000001210370FFF770F903B030BD3A706173C4
:101A1000D20F0000F20F0000802110B50400012257
:101A20000902054800F098FF04480368C460DC62BE
:101A300002F086F910BDC046000800483C020020B4
:101A400010B5124B02689A4203D0114B984209D04C
:101A500010BD104C2378012B0CD0002BF8D1013392
:101A60002370F5E7012303220B495B420B4802F088
:101A700011FBEDE7802100220948090200F06CFF0C
:101A8000084802F08BF900232370E1E70048014089
:101A900084020020DA0100200C560008CC0200204D
:101AA000000800483C02002010B594B02C22002110
:101AB00009A803F091F810220021684603F08CF881
:101AC0001022002104A803F087F8022301240893C0
:101AD00008A80E330B940C9301F07EFD002801D072
:101AE00072B6FEE70723019002900390002168463A
:101AF000009301F0EFFF002801D072B6FEE70690D8
:101B000004A8049402F084F8002801D072B6FEE71D
:101B100014B010BD0F4B10B5834205D00E490322FF
:101B2000180002F0F5FF10BD01200C4A0A491070A0
:101B30000C880B4A944203D002200A4A1070EEE748
:101B40008A785F2AF8D1084A1278002AF4D0054A28
:101B50001070E4E7CC020020E4010020D601002050
:101B60004F4B0000D7010020E2010020F0B5CE4627
:101B70004746002380B504008BB0019300F01CFDA4
:101B8000651EAD0002AE73191900070020009846CB
:101B9000FFF70EFF0120FFF7D5F800210120FFF726
:101BA00065FA2448FFF7DAF92000FFF70FFA002161
:101BB0000B20FFF75BFA204B01ACE858FFF7CEF99A
:101BC0001E48FFF7CBF901210020FFF74FFA1C4810
:101BD000FFF7C4F902210420FFF748FA194B1A4D08
:101BE000994600F0E9FCC01BA84219D8FFF726FC73
:101BF0000928F6D8303020704846FFF7AFF900F0DA
:101C0000DBFC01340700B442EBD10120FFF79AF866
:101C1000434601981B68C01A431E9841013003E0F7
:101C20000120FFF78FF802200BB0C0BCB946B046C8
:101C3000F0BDC046145600084000002020560008A1
:101C4000245600083C5600085FEA000070B500F01A
:101C5000B3FC04000120FFF775F800210220FFF714
:101C600005FA1848FFF77AF903210020FFF7FEF97B
:101C70001548FFF773F9154D05E0FFF7DFFB002866
:101C80000BD0092814D900F097FC001BA842F4D906
:101C90000120FFF757F8022070BD0130FFF752F81E
:101CA00001220B4B01201A700A4B01321A70F3E724
:101CB0000120FFF747F80022054B02201A70054B60
:101CC0001A70E9E74056000850560008973A00009D
:101CD000D6010020D7010020F0B5DE464E4645462D
:101CE0005746E0B5A5B000F04BFCFFF7DDFE14222F
:101CF000002117A802F070FF8021D34B09035A6915
:101D0000D24C0A435A615A69D1480A408021139241
:101D1000139A5A6989020A435A615A6901260A408C
:101D200080211492149A5A69C9020A435A615A6965
:101D30000A4080211592159A5A6949030A435A614B
:101D40005B6900220B4016932100169B00F004FEF5
:101D500000220F21BF4800F0FFFD80210122BD4875
:101D6000490100F0F9FD00220421BB4800F0F4FD18
:101D700017940024B64817A9189619941A9400F0DD
:101D8000CFFCB64BB34817A91793189619941A9419
:101D900000F0C6FCE023AF481B0217A91793189464
:101DA000199400F0BDFCF023A9489B0017A91793D4
:101DB0001894199400F0B4FCC82390205B0117A973
:101DC000C00517931894199400F0AAFC0423A248A4
:101DD00017A91793189619941A9400F0A1FCA04D16
:101DE000A04B28002B60A04BAC606B60EE602C61B8
:101DF0006C61AC61EC612C6200F058FF002801D0EE
:101E000072B6FEE70021280001F082FB011E01D01E
:101E100072B6FEE7280001F0ADFB002801D072B6D3
:101E2000FEE7924B0C2598464246914B1360962351
:101E30009B01994643464A469860D860186198616C
:101E4000D8611862586240465A605D6102F0C4FD74
:101E5000041E01D072B6FEE7404602F0BDFD854883
:101E6000854B84600360854B84614360844BC36011
:101E700002F0B0F8002801D072B6FEE7814C824B28
:101E8000A06023604B46E0602061A061E0612062B9
:101E9000606220006360656102F09EFD021E01D059
:101EA00072B6FEE7794B7A4918001960794B826067
:101EB0004360794B0261C3604261826102F08AF83B
:101EC000051E01D072B6FEE703224046734902F0B8
:101ED0001FFEC8227249200002F01AFEFEF78AFF98
:101EE000FFF7E6F80120FEF72DFF29002800FFF795
:101EF000BDF86C48FFF732F801212800FFF7B6F86B
:101F00006948FFF72BF802212800FFF7AFF8674870
:101F1000FFF724F803212800FFF7A8F86448FFF72B
:101F20001DF8644800F04EFB0120FEF70BFF29006E
:101F3000322217A8FFF75AFAFFF78EF9FFF7D0F908
:101F40005D4B404619000C93012303225B4202F0D3
:101F5000A1F85A4B5A4F9B465A4B002407935A4BB1
:101F600000250893594B0993594B0A93594B0B93EE
:101F7000594B0193594B0393594B9A46594B049330
:101F8000594B0593594B0693594B0D93594B0E934F
:101F9000594B0F934346B846029321E043461B78C2
:101FA000002B19D1FFF7E2FD012815D143464A461F
:101FB0001A70FA2200239200A4185D4153460E9A2B
:101FC0009B880F9913705346DB8802985370012346
:101FD00003225B4202F05EF8FFF7A2FAFEF734FA42
:101FE000002399465B464A461A6000F0E5FA4B46E4
:101FF0000200121BAB414B4500D07FE0FA21890063
:102000008A427BD2FFF71AFA0300013BDBB281461A
:10201000072BC3D90028DFD143461B78002BDBD028
:10202000FFF714FE0128D7D143464A461A70FA2218
:1020300000239200A4185D41012303220C99029809
:102040005B4202F027F8C7E7001002403080000032
:102050000008004800040048000C00480F10000071
:10206000E8010020005800400E090020CC020020AA
:10207000003801408402002000100040FFF90000F9
:102080004C1D000054030020004400403C0200208E
:10209000004801403F1F0000FFFF0000E401002056
:1020A000DC000020685600087C56000894560008A2
:1020B000A456000888130000B8560008DC0300206E
:1020C000E2010020BC560008C8560008D45600089B
:1020D00040000020D8560008D401002020560008F7
:1020E000A4010020E4560008E8560008F456000851
:1020F00004570008E001002010560008FFF7ACF874
:10210000FFF7EEF800210800FEF7B0FF0798FEF792
:1021100025FF03210020FEF7A9FF0898FEF71EFF08
:1021200043461B780021013B072B77D80820FEF798
:102130009DFF0998FEF712FF00210920FEF796FF88
:1021400043461878FEF742FF00210C20FEF78EFF71
:1021500043461B780A9A013B9B00D058FEF7FEFECF
:1021600003210A20FEF782FF0B98FEF7F7FE0321FA
:102170000A20FEF77BFF019B1878FEF727FF039BE1
:1021800099461800FEF7EAFE019B5878FEF71EFFFD
:102190004846FEF7E3FE53461889FEF717FF012174
:1021A0000420FEF763FF0698FEF7D8FE01210A20FF
:1021B000FEF75CFF53469888FEF708FF3A20FEF7CB
:1021C000EDFD5346D888FEF701FF3A20FEF7E6FD05
:1021D00053461889FEF7FAFE02210020FEF746FF5B
:1021E0000D98FEF7BBFE53461888FEF7EFFE2F2032
:1021F000FEF7D4FD53465888FEF7E8FE2F20FEF781
:10220000CDFD5346D889FA23DB009C466044FEF797
:10221000DDFE00F0D1F900250400F3E60920FEF709
:1022200025FF0498FEF79AFE03210A20FEF71EFF01
:102230000598FEF793FEB2E701220A4B82B0996936
:102240001143996199690A4080210092009ADA69E4
:1022500049050A43DA61DB690B400193019B02B037
:102260007047C0460010024010B5040088B0142228
:10227000002103A802F0B0FC134B22689A4201D05F
:1022800008B010BD8022114CD2026369104813437C
:102290006361636903A913400193019BC0231B0180
:1022A0000393122304930F3B0693023B079300F022
:1022B00037FA8022E369D2031343E361E3691340F1
:1022C0000293029BDCE7C046005800400010024029
:1022D0000004004800B5174A036883B0934204D055
:1022E000154A934213D003B000BD1023134A1120A6
:1022F000D1691943D161D2690021134000930022B2
:10230000009B00F071F9112000F0A0F9EBE78021AB
:102310000A4BC9029A6916200A439A619B690022F6
:102320000B4001930021019B00F05EF9162000F0A4
:102330008DF9D8E70010004000480140001002402D
:1023400010B504008AB01422002105A802F044FC54
:1023500023682C4A934204D02B4A93422BD00AB0D4
:1023600010BD8021294BC9019A6990200A439A61C6
:102370009A69C0050A4080210192019A5A6989022E
:102380000A435A615B690B400293029BC023DB0046
:102390000593022306930133089305A9023B099391
:1023A00000F0BEF9002200211B2000F01DF91B20C7
:1023B00000F04CF9D3E78022144B9202D9699020A7
:1023C0001143D961D969C005114003910399596935
:1023D000114359615B6905A913400493049B0C23C5
:1023E00005930A3B069301330893023B099300F0DF
:1023F00097F9002200211C2000F0F6F81C2000F0C4
:1024000025F9ACE7003801400044004000100240CC
:10241000FEE7C046FEE7C0467047C0467047C0466C
:1024200010B500F0BDF8084A136801331360074A7D
:10243000934200D810BDBFF34F8F054B054ADA60B9
:10244000BFF34F8FC046FDE7DC030020204E0000A5
:1024500000ED00E00400FA0510B5024801F0C2FCEE
:1024600010BDC0468402002010B5024801F0BAFC3D
:1024700010BDC0463C02002010B5024801F0A0FE8D
:1024800010BDC046CC02002010B5024801F098FEF5
:1024900010BDC0465403002010B50C490C4A03007F
:1024A000521A0C490868002804D0C318934206D871
:1024B0000B6010BD0848C31808609342F8D902F0B9
:1024C00093FB0C23036001204042F2E7000400006C
:1024D00000200020E0030020300500207047C046A7
:1024E0000D488546FFF7FAFF0C480D490D4A0023B9
:1024F00002E0D458C4500433C4188C42F9D30A4AB9
:102500000A4C002301E013600432A242FBD302F024
:1025100071FBFFF7E1FBFEE7002000200000002038
:10252000BC000020E0570008C0000020300500205B
:10253000FEE7000070B50400FA200E4B8000197809
:10254000FDF7F4FD0C4D01002868FDF7EFFD00F0EC
:1025500089F800280CD10130032C00D970BD023855
:102560000022210000F040F8044B00201C60F5E739
:102570000120F3E7640000206000002068000020D4
:10258000102110B5054A032013680B431360FFF7B1
:10259000D1FFFFF751FE002010BDC04600200240D1
:1025A000034A044B11681B785B1813607047C046E0
:1025B000E403002064000020014B18687047C04607
:1025C000E403002070B50400FFF7F6FF0500631C6C
:1025D00002D0044B1B78E418FFF7EEFF401BA0422B
:1025E000FAD370BD6400002070B5002814DB154BD1
:1025F00003229C46FF23840802401800C026D20014
:10260000890190400B409340A4006444B600A55952
:1026100085432B43A35170BD0B4A0F2394460322DD
:1026200003401040FC321500C000890185400A407B
:102630008240083B9B089B006344DC69AC43224317
:10264000DA61E8E700E100E000ED00E0002805DBEA
:102650001F22012302409340014A13607047C04685
:1026600000E100E08022431E5204012093420ED27A
:10267000C021074A07485360036A09061B021B0A68
:102680000B430362002300209360073313607047FD
:1026900010E000E000ED00E0212230B5815C030095
:1026A000022906D01D3A826301202022002199547C
:1026B00030BD0E2400680168A143016001210D00B6
:1026C0001C682068884320601C6CD86BA54045605E
:1026D00000209954E9E7C046212370B5C25C022A64
:1026E00003D01D3B8363012070BD0E2401680A687E
:1026F000A2430A6001221500046821689143216009
:10270000046CC16BA5404D60C25420230022C2540A
:10271000436B002B02D098470020E5E70020E3E759
:10272000F0B54E46DE4657464546E0B50E680022F7
:10273000002385B0002E00D1B2E07E4CA3467E4C33
:1027400001259D40A8463540AA4645462E4200D167
:102750009FE003254E682E40B446013E012E00D86E
:10276000A5E003259540EE436546032D2DD0C568B1
:102770003540A8468D689540AC46454667463D4382
:102780000327C5604D683D40AC46022D1DD1DD08D4
:10279000AD00AC460437844465461F40BF00B846D0
:1027A0002D6A0F2701954546AF40019DBD43019518
:1027B00045460F69AF40019D3D43A94665464F46DA
:1027C0002F6203274D683D40AC460568354066469C
:1027D00096402E43C02506604E68AD022E4257D06B
:1027E0005D460127AE693E43AE61AE69534D3E4042
:1027F000AC460396039E9E08B6006644B568AC4698
:1028000003251D40AD00A8460F254746BD40A946FB
:1028100065464F46BD43AC469025ED05A84214D011
:10282000474DA84200D17DE0464DA94602254845C6
:1028300004D0454DA946052548456AD04746BD40C8
:10284000A94665464F463D43AC466546B56055468C
:10285000ED438027AC464D687F03A6683D4255D1C5
:1028600065462E40A6604D68E668AD024BD46546CD
:102870002E40E6604D686668AD0341D465462E4043
:1028800066604D682668ED0335D465462E402660A7
:102890000E6835000133DD400232002D00D04FE7D5
:1028A00005B0F0BCBB46B246A946A046F0BD85685F
:1028B000A94603259540AC46EE4367464D46BD43C9
:1028C000A946CD689540AC464D4667463D434746D0
:1028D00085604568BD430127A8464D682D093D40E8
:1028E0009D40AC46454667463D43032745604D68DD
:1028F0003D40AC4638E7554635432E002660C7E7D5
:1029000055462E43BCE755462E43B2E755462E4367
:10291000A8E747460325BD40A846654647463D43D0
:10292000AC4692E745460127AF4065463D43AC467D
:102930008BE7C04600100240000401400000014047
:102940000004004800080048000C004800690840E6
:10295000431E9841C0B27047002A01D08161704780
:102960008162FCE7F0B517001022C6460D00110089
:1029700000B5036804009E6900203140324213D044
:10298000DA61422320269846206883691E4204D1DA
:102990006B1C4BD183691E42FCD020230021C361F4
:1029A000236804220120114380259A696D002A4280
:1029B00030D00120DD610143530505D5236808208F
:1029C00001438020C000D8612368920505D502220A
:1029D0001143FF32FF32DA6123689A69920702D508
:1029E00000229A62236801229869024219D05A682B
:1029F000254802405A60636C20220B4363644123E4
:102A0000E254002301202232A354023AA35480BC92
:102A1000B846F0BD5505D2D49205D8D40028F6D0DA
:102A2000DBE7986902439A612368E0E7FFF7C4FD9A
:102A3000C01BA84203D8002D01D02068A5E743465B
:102A400020684168E35C8269DBB212040ED5802203
:102A5000D20111420AD1202B08D043681A434260A8
:102A6000FFF7AAFD0700206800E0206883691E4286
:102A700000D08AE7FFF7A0FDC01B1928F5D923680D
:102A800020219A698DE7C04600E800FEF8B50400F1
:102A90000D0016000227036809E03200290020001B
:102AA000FFF760FF002807D16B1C07D123689B69E3
:102AB0001F42F2D00020F8BD0120FCE7FFF77CFDAB
:102AC0002368801BA84201D8002DF0D139009A69F3
:102AD00011401742EBD12022636C01201343636441
:102AE0004123E2540133E154023BE154E3E7C046A1
:102AF000F8B54746CE4680B51F00089B06009946AC
:102B00000D009046036809E04A4639003000FFF79F
:102B100029FF00280ED17B1C0ED133689C692C4004
:102B2000641B63425C414445EED00020C0BCB94602
:102B3000B046F8BD0120F9E7FFF73EFD4B46C01A4D
:102B40003368B84201D8002FE8D19A692A40521B55
:102B500051424A414245E1D12022736C0120134386
:102B600073644123F25400232232B354023AB35423
:102B7000DCE7C046F8B5036806009B690C00170047
:102B800020259B0610D518E0FFF716FD3368C01B03
:102B9000A04201D8002C04D129009A6911401542A5
:102BA0000DD09B691D4208D13A0021003000FFF78B
:102BB000D9FE0028E8D00120F8BD0020FCE7736CA6
:102BC00001202B4373644123F5540133F154023B3C
:102BD000F154F1E7F0B54646D6464F46C0B5036816
:102BE00004009B690D0016005B0745D4202399461D
:102BF000103B984610339A460427320029002000E3
:102C0000FFF7B0FE2368002827D149469A69114290
:102C100027D041469A699A6911408C464146114233
:102C20001DD0D96104235246636423681E49DA61CA
:102C3000226853680B40536041235246E2540133EB
:102C4000E054023BE054FFF7B7FC012023689B6986
:102C5000E0BCBA46B146A846F0BD9B69F3E76346BF
:102C60006364FFF7A9FC801B854207D3002D05D0C4
:102C700023689B695B07BFD50020E9E7390023681B
:102C80009A691140174204D09B691F42B5D00020B9
:102C9000DEE72020626C024362644122A054013AC4
:102CA000A1549B691F38D3E700E800FE10B5041E4D
:102CB00060D04123C35CDAB2002B56D041232422DA
:102CC0000121E254226813688B43136063682A4928
:102CD00022680B4013612268284993680B40936077
:102CE000E3682268A168012B31D084231B020B43C7
:102CF0009360E3682268022B31D0536820490B406F
:102D0000536022681F4B516800200B4353602268B8
:102D10001A49D3680B40D360626923692168134361
:102D2000A26912021343CB60216AE36922680B4354
:102D300001211360226813680B43136000234122B2
:102D40001F316364A15401322363A35410BD802357
:102D50001B020B439360E3682268022BCDD18023D2
:102D600051681B010B435360CBE74033C254FFF75C
:102D70007BFAA3E70120E9E7FFFFFFF0FF7FFFFFFA
:102D8000FFF7FFFF00800002F0B54F464646D646EB
:102D900099464123C0B59A46C35C82B004000F0037
:102DA00090460A9E202B00D08EE02033C25C012A80
:102DB00000D189E00122C254FFF7FEFB802105000B
:102DC00000901923012220000902FFF791FE00283C
:102DD00073D121235246A35410222133E254434697
:102DE00063624B4660646385638D6063FF2B00D92B
:102DF0006CE0638D9BB22385002B00D09EE02168A0
:102E000050484B68BF050340BA0D1A434E4B13435D
:102E10004B60638D002B3AD04C4BBF0D984602E0BF
:102E2000638D002B33D02A0031002000FFF72EFEE7
:102E3000002842D1626A236812789A62636A013379
:102E40006362638D013B9BB26385238D628D013B81
:102E50009BB22385002AE3D0002BE1D1330000226E
:102E6000802120000095FFF743FE002825D1638DC7
:102E7000FF2B53D9FF234246216823854B6813401B
:102E8000334A3B4313434B60638D002BCBD12A0065
:102E900031002000FFF76EFE00280ED120222368AB
:102EA0002C4DDA6121684B682B404B604123E25482
:102EB0000133E054023BE05400E0012002B0E0BCEA
:102EC000BA46B146A846F0BD0220F7E7FF238020AE
:102ED00023854004424623681278BF059A62636ADC
:102EE000216801336362638D013B9BB26385238D4F
:102EF000013B9BB223854A6801339446BA0D0243D5
:102F0000904662460F48DBB2104042461B04024323
:102F100013438022920113434B607AE74046638D4E
:102F200021689BB223854A68DBB21B0402403B4305
:102F300013438022920413434B6071E78020800486
:102F4000C8E7C046009800FC00200002009C00FC7E
:102F50000000FF0100E800FEF0B557464E4645462A
:102F6000DE4698464123E0B59A46C35C83B0040030
:102F70000F0091460C9E202B00D090E02033C25CC5
:102F8000012A00D18BE00122C2549346FFF714FBC3
:102F90008021050000901923012220000902FFF77B
:102FA000A7FD002873D122235246A35410222033B8
:102FB000E2544B466362434660646385638D60639D
:102FC000FF2B00D96DE0638D21689BB22385BF057F
:102FD000DBB2BA0D1B0448681343404A0240134356
:102FE0003F4A13434B60638D002B3AD03D4BBF0DDE
:102FF000984602E0638D002B33D02A003100200078
:10300000FFF7E8FD002842D123685A6A636A1A7004
:10301000628D636A013A013392B26362238D6285E5
:10302000013B628D9BB22385002AE3D0002BE1D1C6
:1030300033000022802120000095FFF759FD002871
:1030400025D1638DFF2B39D9FF2342462168238583
:103050004B681340244A3B4313434B60638D002B62
:10306000CBD12A0031002000FFF784FD00280ED1CB
:10307000202223681D4DDA6121684B682B404B608C
:103080004123E2540133E054023BE05400E00120CC
:1030900003B0F0BCBB46B246A946A046F0BD022034
:1030A000F6E75B46216823854B680C48BF05034063
:1030B000BA0D1A430E4B13434B6094E74046638DA1
:1030C00021689BB223854A68DBB21B0402403B4364
:1030D00013438022920413434B608BE7009800FC5B
:1030E00000240002009C00FC0000FF0100E800FE3C
:1030F00000240101F0B54E464546DE465746E0B590
:1031000083B098460CAB160004CB04001B880D005E
:103110009B4641239946C35C9246202B24D1002A2A
:1031200017D05B46002B14D04022835C012B1BD0B0
:1031300001238354FFF740FA8021070000901923F0
:10314000012220000902FFF7D3FC00280ED0012045
:1031500003E0802301209B00636403B0F0BCBB4606
:10316000B246A946A046F0BD0220F6E721234A4612
:10317000A35440222133E254534663625B466064A9
:1031800063854346216860634A685748DBB2024062
:10319000AD051B041343AD0D544A2B4313434B6041
:1031A0003A0020000E99FFF771FC002866D14346D3
:1031B000012B59D12368F6B29E62002280212000A3
:1031C0000E9B0097FFF794FC002857D1638DFF2BCF
:1031D00059D8638D21689BB223854A684448DBB285
:1031E0001B0402402B4313438022920413434B6081
:1031F00080239B049946FF233D4E984602E0638D51
:10320000002B59D03A0020000E99FFF73FFC002810
:103210009DD1626A236812789A62636A013363629D
:10322000638D013B9BB26385238D628D013B9BB215
:103230002385002AE3D0002BE1D100228021200049
:103240000E9B0097FFF754FC002800D07FE7638DAA
:10325000FF2B23D94346216823854B68254A3340F9
:103260002B4313434B60CAE72368320A9A6220005B
:103270003A000E99FFF70AFC00289BD04023002259
:103280000120E25469E7FF23216823854B68184A2F
:103290001340184A2B4313434B60A9E7638D226800
:1032A0009BB223855168DBB21B0431402B430B4397
:1032B00049460B435360A2E73A0020000E99FFF7FE
:1032C00059FC002800D042E7202223680A4DDA6129
:1032D00021684B682B404B604123E2540133E0549A
:1032E000023BE05439E7C046009800FC0020000192
:1032F000009C00FC0000FF0100E800FEF0B557460E
:103300004E46DE464546E0B583B01F000CAB1600C6
:1033100004CB04001B880D009B4641239946C35CE7
:103320009246202B24D1002A17D05B46002B14D0C4
:103330004022835C012B1BD001238354FFF73CF90F
:103340008021804600901923012220000902FFF706
:10335000CFFB00280ED0012003E0802301209B003A
:10336000636403B0F0BCBB46B246A946A046F0BDBC
:103370000220F6E722234A46A35440222033E25497
:10338000534663625B4621686064606363854A6894
:103390005948FBB202401B0413438022AD05AD0D1A
:1033A00092012B4313434B60424620000E99FFF7D6
:1033B0006DFB00285FD12368012F6CD1F6B29E62AD
:1033C000434600220093402120000E9BFFF790FB14
:1033D000002850D1638DFF2B52D8638D21689BB29A
:1033E00023854A684448DBB21B0402402B43134345
:1033F000424A13434B6080239B0499462B000127CC
:1034000045463F4E984602E0638D002B5DD000227A
:10341000042120000E9B0095FFF76AFB00289AD13B
:1034200023685A6A636A1A70628D636A013A0133CB
:1034300092B26362238D6285013B628D9BB22385CC
:10344000002AE1D0002BDFD10022802120000E9B3A
:103450000095FFF74DFB002800D07CE7638DFF2B24
:1034600024D94246216827854B6833401343254AB7
:1034700013434B60C8E7402300220120E25470E769
:103480000123216823854B681B4A13401E4A2B43A6
:1034900013434B60AFE7320A9A62200042460E990E
:1034A000FFF7F4FA0028E6D1236887E74046638DEA
:1034B00022689BB223855168DBB21B043140034371
:1034C0000B4349460B4353609EE72A0020000E99A8
:1034D000FFF750FB002800D03DE7202223680B4D6A
:1034E000DA6121684B682B404B604123E254013381
:1034F000E054023BE05434E7009800FC0024000252
:10350000009C00FC000001010024010100E800FE15
:10351000F0B5CE464746412480B5035D8946DDB20D
:10352000202B23D14026835D012B1FD0012724238C
:103530008755035501680B68BB430B6001680B6836
:10354000984642460A4B1A400A604A460368196880
:1035500011431960026813683B431360002305554B
:1035600083550020C0BCB946B046F0BD0220F9E743
:10357000FFEFFFFFF0B5CE464746412280B5835CA2
:103580008946DCB2202B22D14025435D012B1ED081
:10359000012624234655835407683B68B3433B60A8
:1035A00007683B68984641460A4B19400B0049465C
:1035B00009021943396001680B6833430B6000232B
:1035C000845443550020C0BCB946B046F0BD02202B
:1035D000F9E7C046FFF0FFFFF0B5CE46474680B59D
:1035E000040083B0002800D104E10368DA0732D573
:1035F0000C21BE4842680A40042A00D117E1426803
:103600001140082900D10EE16368012B00D118E1B7
:10361000002B02D0052B00D1A1E1B44BB4491A68AC
:103620000A401A601A68B3490A401A606368002B9E
:1036300000D010E1FEF7C0FF80260500AB4FB602B8
:1036400005E0FEF7B9FF401B642800D931E13B6873
:103650003342F6D123689A0729D50C23A34A51682F
:103660000B4200D1BFE051680B40082B00D1B6E0FF
:10367000E3689E4D002B00D12FE101222B68022729
:1036800013432B60FEF798FF060005E0FEF794FF5A
:10369000801B022800D90CE12B681F42F6D0F821CC
:1036A0002A6823698A43DB0013432B6023681A07C7
:1036B0007DD45A0744D5802200208C4B5205D9690D
:1036C0008146114208D1D9691143D961DB691340A0
:1036D0000193019B012399468027874E7F00336821
:1036E0003B4200D1C8E0A368012B00D114E1002BBC
:1036F00002D0052B00D13EE101217C4B1A6A8A439E
:103700001A621A6A03318A431A62A368002B00D135
:10371000D1E0FEF751FF754B060098460227774D22
:1037200005E0FEF749FF801BA84200D9C1E04346EF
:103730001B6A1F42F5D04B46012B00D108E12368DC
:10374000DB0612D56369012B00D13AE1053300D0C5
:10375000E7E00421F820654A536B8B435363516BB8
:10376000A3698143DB000B435363236A002B1CD006
:103770000C225E4D69680A40082A00D105E1022B3F
:1037800000D13CE12B685E4A802613402B60FEF797
:1037900013FFB604040005E0FEF70EFF001B02282D
:1037A00000D986E02B683342F6D1002023E0E3699C
:1037B0004E4D002B24D001226B6A022713436B620B
:1037C000FEF7FAFE060005E0FEF7F6FE801B022873
:1037D00000D96EE06B6A1F42F6D0236869E7536830
:1037E000DB0300D544E7414B1B689B0754D5E368D6
:1037F000012B51D0012003B0C0BCB946B046F0BD8A
:1038000001226B6A022793436B62FEF7D5FE060026
:1038100004E0FEF7D1FE801B02284AD86B6A1F42E3
:10382000F7D1236845E74268D20300D4ECE62F4A7B
:103830001268920300D40EE76268002A00D00AE7FB
:10384000D8E78023294A5B0211680B431360636841
:10385000002B00D1EEE6FEF7AFFE80260500234FD9
:10386000B60204E0FEF7A8FE401B642821D83B689E
:103870003342F7D02368EEE633683B433360FEF70C
:103880009BFE050004E0FEF797FE401B642810D85D
:1038900033683B42F7D026E7F820144923690A68C9
:1038A000DB00824313430B6023681A0700D400E750
:1038B0007DE703209FE7FEF77FFE0C4B060098464E
:1038C00002270E4D04E0FEF777FE801BA842F0D8D9
:1038D00043461B6A1F42F6D12DE701222B680227BF
:1038E00093432B60FEF768FE060010E000100240D4
:1038F000FFFFFEFFFFFFFBFF00700040881300008A
:10390000FFFFFFFEFEF758FE801B0228D1D82B6870
:103910001F42F7D12368CAE655490A6A13430B626E
:10392000F3E60422524D02276B6B13436B636B6B00
:10393000033A93436B63FEF73FFE060004E0FEF795
:103940003BFE801B0228B4D86B6B1F42F7D10CE7FB
:10395000474A4849D3690B40D3612368F0E6802287
:10396000434BD20219680A431A6080221968520236
:103970000A431A606BE704213D4B1A6A0A431A6234
:103980001A6A03390A431A62BFE6012B00D131E7F4
:1039900080236A68616A5B020120ED6A13408B42F2
:1039A00000D028E70F23E16A2B408B4200D022E7AA
:1039B000F0239B031A40A36AD21A531E9A41D0B235
:1039C00019E704212A4D02276A6B0A436A636A6B6E
:1039D00013436B63FEF7F0FD060005E0FEF7ECFD18
:1039E000801B022800D964E76B6B1F42F6D0F821D8
:1039F0006A6BA3698A43DB0013436B63B5E62B68EC
:103A00001D4A802713402B60FEF7D6FDBF04060039
:103A100005E0FEF7D1FD801B022800D949E72B689D
:103A20003B42F6D10F22EB6A114E9343E26A1343F5
:103A3000EB62616AA36A6A680B4310490A40134348
:103A40006B6080232A685B0413432B60FEF7B4FD90
:103A500080250400AD0405E0FEF7AEFD001B022842
:103A600000D926E733682B42F6D00020C3E6C046D3
:103A700000100240FFFFFFEFFFFFFFFEFFFFC2FF4E
:103A80000C2370B50F494A681340082B01D00E482B
:103A900070BD0F250D48930C2B40C45CC96AD2033E
:103AA00007D50B4B0D40595D0748FCF73FFB6043C2
:103AB000EEE76201121B93019B1ADB001B1918022F
:103AC000E6E7C0460010024000127A008057000866
:103AD00090570008F8B5CE46474604000D0080B563
:103AE00000280DD001233C490A681A40AA420CD292
:103AF0000A689A432A430A600A681340AB4204D01A
:103B00000120C0BCB946B046F8BD23689A070FD55E
:103B10005B0705D5E023314ADB0051680B43536056
:103B2000F0212E4A53688B43A1680B4353602368EE
:103B3000DB0722D5294B62681B68012A46D0022A7E
:103B400041D09B07DCD50321244E73688B4313437C
:103B50007360FEF731FD0C239846214B0700994610
:103B600004E0FEF729FDC01B484532D84346726881
:103B70001A4063689B009A42F3D10121164A1368E8
:103B80000B40AB4205D913688B431360136819428D
:103B9000B6D123685B0706D5104A124953680B401B
:103BA000E1680B435360FFF76BFF0C4B0E4A5B68F9
:103BB0000E491B061B0FD35CD84008600320FEF79C
:103BC000B9FC00209DE79B01BDD499E79B03BAD4C3
:103BD00096E7032095E7C04600200240001002400F
:103BE00088130000FFF8FFFF6857000860000020FE
:103BF000044B054A5B6805495B055B0FCB5C1068AD
:103C0000D84070470010024060000020785700083C
:103C1000F0B5CE46474680B50368040083B0DA03AA
:103C200031D58022404B5205D9690027114243D03B
:103C300080263E4D76002B6833424BD03A4DC02350
:103C40002A6A9B00100018401A4212D061680B408B
:103C500083420FD080212B6A286A490201432962DE
:103C6000296A334A33481A40014029622A62DB0735
:103C700047D461682C4A2E48136A03400B431362F1
:103C8000012F38D02368DA0707D50321264A136BA2
:103C90008B43A1680B431363236800209B0606D562
:103CA0001021214A136B8B43E1680B43136303B06C
:103CB000C0BCB946B046F0BD8026D9691B4D114342
:103CC000D961DB69760013400193019B2B680137B2
:103CD0003342B3D12B6833432B60FEF76DFC804633
:103CE0002B683342AAD1FEF767FC4346C01A64280A
:103CF000F6D90320DBE7D3690F490B40D361236872
:103D0000C1E7FEF759FC022398460C4B0600994682
:103D100004E0FEF751FC801B4845EAD842462B6A76
:103D20001A42F6D06168A5E700100240007000401A
:103D3000FFFCFFFFFFFFFEFFFFFFFFEF8813000008
:103D40003D22815C03000120012913D101319954E6
:103D50001968CA680243CA601B680D4A93420AD0B8
:103D60000C4A934207D00C4A934204D01A6802438B
:103D700000201A607047072299680A40062A05D079
:103D800001211A6800200A431A60F3E70020F1E7D6
:103D9000002C01400004004000400140012110B50A
:103DA0000268D3688B43D3600368084A1C6A1442D4
:103DB00006D11C6A064A144202D11A688A431A6064
:103DC0003D230122C254002010BDC0461111000045
:103DD000440400007047C0467047C0467047C04664
:103DE0007047C046022270B503680400DE681D6992
:103DF0002A4201D032425DD104232B4201D033420A
:103E000043D108232B4201D033422BD110232B4224
:103E100001D0334214D101232B4201D033425ED171
:103E200080232B4201D0334261D140232B4201D069
:103E3000334264D120232B4201D0334247D170BD9D
:103E40001122236852421A61082323772368200035
:103E5000DA69C0239B001A4265D0FFF7BDFF00233B
:103E60002377D8E70922236852421A610423237773
:103E700023682000DB699B0752D1FFF7ABFF2000CE
:103E8000FFF7ACFF00232377C0E7052223685242E7
:103E90001A6102232377236820009A69C0239B00BC
:103EA0001A423AD1FFF796FF2000FFF797FF002351
:103EB0002377A6E7053A1A610123037703689B6914
:103EC0009B0724D0FFF788FF0023237794E7212264
:103ED0002368524220001A6100F0A8F8AFE70222DE
:103EE0002368524220001A61FDF7AAFD98E781225B
:103EF0002368524220001A6100F09AF895E74122A7
:103F00002368524220001A61FFF76AFF92E7FFF729
:103F100061FF2000FFF762FFD6E7FFF75DFFC6E70E
:103F2000FFF75AFFAEE7FFF755FF2000FFF756FFF8
:103F300095E7C046204A0368904229D01F4A904224
:103F40001DD01F4A90421ED01E4A904224D01E4AC5
:103F5000904221D01D4A90421ED0802293434A694C
:103F6000134303608B68C3620B6883620123436160
:103F70000269134202D002699A43026170477022BB
:103F800093434A681343124A1340CA681343E4E751
:103F9000702293434A6813430D4A1340CA6813437F
:103FA000802293434A69134303608B68C3620B68A2
:103FB00083620B690363D9E7002C014000040040D1
:103FC0000020004000400140004401400048014002
:103FD000FFFCFFFF70B5041E26D03D23C35CDAB2A0
:103FE000002B1CD002233D252100635501C9FFF79A
:103FF000A1FF012346220020A354083AA354013212
:10400000A3540132A3540132A3540132A354013208
:10401000A3540132A3540132A354635570BD3C3301
:10402000C254FEF757F9DDE70120F7E77047C046B5
:104030007047C04610B5EFF3108C012282F3108850
:104040000168134C0B6823400B608CF31088EFF36E
:10405000108C82F3108801688B6893438B608CF31B
:104060001088036E012B0BD1EFF3108183F31088BE
:10407000026832341368FF34A343136081F310885D
:1040800080232022C25000230366836610BDC046F1
:10409000DFFEFFFFF0B54F464646D646C0B51C00D2
:1040A000C36F06000F001500202B62D1002946D0F7
:1040B000002A44D0802382685B019A4204D10369BC
:1040C000002B01D1CB073AD400228423F250633B6A
:1040D000F367FEF771FA5023F5520233F5520021CF
:1040E0008023B26881468A465B019A4252D05223AD
:1040F0005222F35A80259046002B14D0336801E0F9
:10410000621C22D1DA691542FAD0002F28D03A7801
:1041100001371A8543464246F35A013B9BB2B352DC
:10412000B35A002BEAD14025326801E0631C26D146
:10413000D3691D42FAD020230020F36700E001205C
:10414000E0BCBA46B146A846F0BDFEF735FA4B468C
:10415000C01A84420FD3002C0DD033681A68D1E7FF
:1041600052461288D205D20D1A8502239C46E2449B
:10417000D0E70220E4E720230320F367E0E7FEF71F
:104180001BFA4B46C01A8442F5D3002CF3D0326898
:104190001368CDE73369002BA9D1BA460027A6E7FB
:1041A0007047C0467047C04600235A2210B5406A87
:1041B0008352083A8352FFF7F5FF10BD7047C0469F
:1041C000F8B5CE46474680B502680400D369AD48CD
:1041D00011689568034200D078E02020184202D090
:1041E000084200D0EDE0206E012814D080221A424F
:1041F00009D140221A4202D00A4200D0E6E0C0BCF7
:10420000B946B046F8BD0A42F3D0E36E002BF6D0B3
:1042100020009847F3E710251D42E7D00D42E5D076
:10422000156223689A6840231E001640134200D18D
:10423000E9E0666F3268526892B2002ADFD05821F6
:104240008846615A9142DAD95A27E253B269202A44
:1042500032D0EFF3108680F3108821688A4F0A6805
:104260003A400A6086F31088EFF3108680F31088D6
:1042700021688A6882438A6086F31088EFF310868B
:1042800080F3108821688A689A438A6086F31088D0
:1042900020224033E25000232366EFF3108180F3A5
:1042A000108822681368AB43136081F31088606F35
:1042B000FEF7F2F94346E15A022363665833E35AA4
:1042C0002000C91A89B2FFF779FF98E701266F48E5
:1042D00035400840284300D185E71E4206D0C80576
:1042E00004D58420166222583243225002221A42F8
:1042F00062D0002D10D02068842602620420A259CA
:104300000243A251184207D00420022622681062FC
:1043100080302258324322500820184209D02022EF
:104320000A402A4305D0842522681062625902435C
:10433000625180221201134208D0480106D520683C
:1043400020250262842022582A4322508422A25827
:10435000002A00D153E720221A4201D00A424CD150
:1043600084272368E25940269D682823354013405E
:1043700020001D4300D180E0FFF75CFE23689B68AE
:104380001E4236D0EFF31081012383F31088226898
:104390009368B343936081F31088636F002B28D038
:1043A0003B4A5A63606FFEF797F9002800D126E771
:1043B000606F436B984722E75A07ADD5002DA3D114
:1043C000AAE7A36E002B00D022E718E7EFF31080D6
:1043D000012383F3108821680B6893430B6080F3FB
:1043E00010882023E36700232000E366FFF7D8FE50
:1043F00005E72000FFF7D6FE01E7A36E002BAFD044
:1044000020009847ACE758235A22E15AA35AA25AEF
:104410009BB2002A00D1F2E6C91A89B2002900D164
:10442000EDE6EFF3108980F3108822681368984650
:104430004746184B1F40176089F31088EFF3108729
:1044400080F31088226893688343936087F3108811
:1044500080232022E2502666A666EFF3108680F3C2
:10446000108822681368AB43136086F31088022318
:1044700020006366FFF7A2FEC1E6FFF793FEE55159
:10448000BDE6C0460F080000FFFEFFFF200100044C
:10449000A9410008DFFEFFFF5C23C25A2433C15844
:1044A00070B5222905D00821026893690B439361F6
:1044B00070BD01688C8C416D22400A705A21426D9A
:1044C00001324265425A013A92B24252425A91B284
:1044D000002AEDD1EFF3108C013282F310880568C9
:1044E0001F4E2C6834402C608CF31088EFF3108C36
:1044F00082F310880568AC689443AC608CF3108834
:104500002024C4500368816641665B681B020AD59B
:10451000EFF3108182F310880268124C1368234075
:10452000136081F31088036E012B16D100220266FE
:10453000EFF3108483F31088016810320B68934303
:104540000B6084F310880368D9690A4200D01A62AC
:104550005823C15AFFF732FEAAE7FDF7DBFAA7E7B7
:10456000DFFEFFFFFFFFFFFB5C23C15A2433C2586D
:1045700070B5222A05D00821026893690B43936124
:1045800070BD0268446D928C0A405A212280426DAF
:1045900002324265425A013A92B24252425A91B2B2
:1045A000002AEDD1EFF3108C013282F310880568F8
:1045B0001F4E2C6834402C608CF31088EFF3108C65
:1045C00082F310880568AC689443AC608CF3108863
:1045D0002024C4500368816641665B681B020AD5CB
:1045E000EFF3108182F310880268124C13682340A5
:1045F000136081F31088036E012B16D1002202662E
:10460000EFF3108483F31088016810320B68934332
:104610000B6084F310880368D9690A4200D01A62DB
:104620005823C15AFFF7CAFDAAE7FDF773FAA7E7B7
:10463000DFFEFFFFFFFFFFFB10B50400016883688A
:1046400000690A68034360690343E06903433E4825
:10465000024013430B6022683C4953680B40E168F9
:104660000B435360206AA369216803438A68384872
:10467000024013438B602368364A934207D0364A80
:1046800093420BD001200023A366E36610BD334B99
:104690001A6B03231340013B022B16D98023E269D6
:1046A0001B029A422CD0FFF7A3FA00280BD06168B6
:1046B0004B081818FBF73AFD0200294B103A9A42B2
:1046C000E0D82368D8600020DDE78020254A00027A
:1046D000D25CE36983420ED0042A06D008D8002AAF
:1046E000E1D0022ACED12048E1E7FFF7C9F9DCE7A3
:1046F000082ADCD0C6E7042A23D01DD8002A17D107
:10470000FFF776FA0028DED0430061684808C01839
:10471000FBF70CFD0200124B103A9A42B2D8134B31
:10472000226803400007400F0343D3600020AAE73C
:10473000022AA7D10E4BE8E780235B02082AE4D0C7
:10474000A0E7FFF79DF9DDE7F369FFFFFFCFFFFF6C
:10475000FFF4FFFF00380140004400400010024019
:10476000EFFF0000A057000800127A00F0FF0000E1
:104770000024F400436A1A0707D502682C495368DD
:104780000B40416B0B435360436ADA0707D502685D
:10479000284953680B40816A0B435360436A9A0768
:1047A00007D50268244953680B40C16A0B43536024
:1047B000436A5A0707D50268204953680B40016BCA
:1047C0000B435360436ADA0607D502681C499368B5
:1047D0000B40816B0B439360436A9A0607D50268CE
:1047E000184993680B40C16B0B439360436A5A06A8
:1047F0000CD50268144953680B40016C0B4353609D
:104800008023026C5B039A420AD0436A1B0606D5DA
:1048100002680E4953680B40816C0B43536070472C
:1048200002680B4953680B40416C0B435360ECE743
:10483000FF7FFFFFFFFFFDFFFFFFFEFFFFFFFBFF0F
:10484000FFEFFFFFFFDFFFFFFFFFEFFFFFFFF7FFC0
:10485000FFFF9FFFF8B557464E464546DE46E0B59A
:1048600016000A000D004021403A8A4399468046CE
:1048700092460A9F036801E07A1C0DD1DC692C4046
:10488000641B62425441B442F6D00020F0BCBB46E7
:10489000B246A946A046F8BDFDF78EFE4B46C01AAB
:1048A000B84223D8002F21D043461B681A6852070C
:1048B000E4D55246002AE1D008242100DA691140EB
:1048C0008B46144214D18022D96912011142D5D0ED
:1048D0001A624046FFF7AEFB842320224146CA50AD
:1048E000424659460C3B0320D154CFE70320CDE785
:1048F00040461C62FFF79EFB842342464146D4504B
:1049000000220C3B0120CA54C0E7C0460022842389
:1049100030B50400C25083B0FDF74EFE226805009A
:10492000116809070FD4126852071BD42023802274
:10493000E367A350002300202366636678230022E8
:10494000E25403B030BD8021214B00220093890343
:1049500003002000FFF77EFF002829D1226812689B
:104960005207E3D580211A4B0022009320002B0030
:10497000C903FFF76FFF0028D8D0EFF310800122A2
:1049800082F310882168134D0B682B400B6080F375
:104990001088EFF3108082F3108821688B689343AE
:1049A0008B6080F3108880231F320320E250C5E71C
:1049B000EFF31081012383F31088802022681368AD
:1049C0008343136081F3108820237D38E367B5E7C4
:1049D000FFFFFF01DFFEFFFF10B5041E24D0C36FF1
:1049E000002B27D0242301212268E36713688B431F
:1049F0001360636A002B19D12000FFF71DFE012808
:104A000012D022680E49536820000B4008215360E1
:104A1000226893688B4393602268073913680B43BD
:104A20001360FFF773FF10BD0120FCE72000FFF7C4
:104A3000A1FEE1E778228354FDF782FCD2E7C0466D
:104A4000FFF7FFFF58234165C2520233C2520023D1
:104A50008366802382685B019A4246D00023002A45
:104A60003DD05C22835284230022C250043B223278
:104A7000C250EFF3108C012181F310880268936813
:104A80000B4393608CF31088802382685B019A4209
:104A900012D01C4A03698266002B12D1EFF31081F9
:104AA000012383F3108802682020136803431360F6
:104AB00081F31088002070470369002B1FD0114B31
:104AC0008366EFF31081012383F31088026820339B
:104AD0001068FF330343136081F31088EAE703692A
:104AE0005A425341DB017F33BBE703695A1E9341AE
:104AF000FF225B429343044A94466344B1E7034B6D
:104B00008366CBE799440008FF010000694500086F
:104B100003008020185870B5202827D1002923D001
:104B2000002A21D080209C684001844205D1186968
:104B3000002802D10130CC0717D40020186618686D
:104B4000406800020CD5EFF3108C012080F3108830
:104B500080201C68C0042568284320608CF31088DE
:104B60001800FFF76FFF00E0012070BD0220FCE796
:104B70000CB430B5174B0C001D689DB0002908DA45
:104B80008B2301202B6040421DB030BC08BC02B01A
:104B9000184782236A469B00938200230290069066
:104BA000994200D04B1E0493079301236A465B424F
:104BB000D382280021AB209A02A9019300F0AAF920
:104BC000431C01DA8B232B60002CDDD00022029BDA
:104BD0001A70D9E7B800002003008218934200D170
:104BE000704719700133F9E7014B18687047C046E8
:104BF000B800002070B500260C4C0D4D641BA410AD
:104C0000A64209D1002600F06DFC0A4C0A4D641B37
:104C1000A410A64205D170BDB300EB5898470136E9
:104C2000EEE7B300EB5898470136F2E7D857000893
:104C3000D8570008DC570008D8570008704770475D
:104C4000002310B59A4200D110BDCC5CC45401338E
:104C5000F8E7000070B50500002910D00C1F23688C
:104C6000002B00DAE418280000F0E2F81D4A13686F
:104C7000002B05D163601460280000F0E1F870BDDE
:104C8000A34208D9206821188B42F3D119685B68C8
:104C900009182160EEE71A005B68002B01D0A342DF
:104CA000F9D911685018A0420BD120680918501882
:104CB00011608342E0D118685B684118116053604D
:104CC000DAE7A04202D90C232B60D5E7206821182F
:104CD0008B4203D119685B680918216063605460D6
:104CE000CAE7C0462805002070B50F4E0D00316898
:104CF0000400002902D100F0A1FB3060290020004F
:104D000000F09CFB431C0AD00323C51C9D43A84212
:104D100007D0291A200000F091FB013001D10125B4
:104D20006D42280070BDC0462C050020F7B5032257
:104D3000CB1C9343083306001F000C2B38D20C27E2
:104D4000B94237D8300000F073F8384B00931B6835
:104D50001C00002C33D139003000FFF7C5FF0400E0
:104D6000431C5ED1009B1C682500002D4ED1002CF9
:104D700051D023682900E3183000019300F05EFB56
:104D8000019B834247D123683000FF1A3900FFF7A7
:104D9000ABFF01303FD02368DB192360009B1B6809
:104DA000002B40D05A68A24233D100225A6014E04E
:104DB000002BC5DA0C23002533602800FEBD2168D6
:104DC000C91B20D40B2918D9E2192760A34212D19C
:104DD000009B1A606368116053603000250000F08A
:104DE0002FF807220B35231D9543EA1A9D42E4D084
:104DF0005B1BA350E1E75A60ECE76268A342D5D1A0
:104E0000009B1A60E9E723006468A2E72C006D6844
:104E1000ABE71300C4E70C233000336000F010F858
:104E2000CBE72760D9E75B60FFDEC046280500209E
:104E300010B50248FFF702FF10BDC0462405002050
:104E400010B50248FFF7FBFE10BDC0462405002048
:104E5000F0B585B0019303928E68019A07000C00AB
:104E60000B68964231D88A899021C9000A4229D01C
:104E7000032021695B1A029363694343DD0FED1838
:104E8000019B029801331B186D10AB4200D91D0025
:104E9000520529D529003800FFF748FF061E2DD0FE
:104EA000029A2169FFF7CCFEA289194B1A40802390
:104EB0001343A381029B2661F61826606561019E5B
:104EC000ED1AA560019B9E4200D9019E3200039914
:104ED000206800F09FFA0020A3689B1BA360236852
:104EE0009B19236005B0F0BD2A00380000F0C3FA1A
:104EF000061EDFD138002169FFF7ACFE0C2301202C
:104F00003B60A28934331343A3814042EAE7C046A1
:104F10007FFBFFFFF0B5A1B003901D008B890F0050
:104F200016001B0611D50B69002B0ED14021FFF78F
:104F3000FDFE38603861002805D10C23039A013842
:104F4000136021B0F0BD40237B61002308AC636196
:104F5000203363761033A376079535002B78002B2A
:104F600001D0252B48D1AB1B0593B5420BD03200A5
:104F700039000398FFF76CFF013000D1AFE063699F
:104F8000059A9B1863612B78002B00D1A7E00122C2
:104F900000235242626004A9543252186E1C2360EE
:104FA000E360A3601370A365554B052218003178A8
:104FB000059300F055FA751C00281FD12268D3060E
:104FC00004D5532304A95B1820211970130704D5B5
:104FD000532304A95B182B21197033782A2B16D080
:104FE000350000210A20E3682A786E1C303A092A2D
:104FF0004ED9002911D117E00135AFE7059B226892
:10500000C01A0123834013432E002360CCE7079B83
:10501000191D1B680791002B01DB0B9304E05B4219
:10502000E3600223134323602B782E2B0AD16B7885
:105030002A2B35D1079B02351A1D1B680792002BBE
:105040002BDB09932F4E03223000297800F008FA59
:10505000002806D04023801B83402268013513437B
:1050600023602978062228486E1C217600F0F8F982
:1050700000283CD0254B002B25D10722079B073366
:105080009343083307936369049A9B18636164E749
:105090004343350001219B18A6E701235B42D0E77B
:1050A00000230A201A000135636029786E1C30390C
:1050B000092903D9002BC5D00992C3E74243350023
:1050C00001235218F1E707AA009221003A00104B81
:1050D000039800E000BF0490049B0133D3D1BB8947
:1050E0000D985B0600D42CE70120404229E707AA6F
:1050F000009221003A00064B039800F07BF8EAE7A3
:10510000A3570008A9570008AD5700080000000089
:10511000514E0008F7B5160001938A680B690C0020
:105120000090934200DA1300220033604332127879
:10513000002A01D00133336023689B0602D533680F
:10514000023333602268062315001D401A4227D01F
:10515000230043331B785A1E93412268920630D4B1
:10516000220001990098089D4332A847013025D0BC
:105170000622236800251340042B05D13368E56817
:10518000ED1AEB43DB171D40A3682269934201DD52
:105190009B1AED180026B54220D1002010E0013501
:1051A000E36832689B1AAB42D2DD220001230199E9
:1051B0000098089F1932B8470130F0D101204042D1
:1051C000FEBD3020E1184331087021005A1C4531E2
:1051D0000978A218433202331170C1E7220001237B
:1051E00001990098089F1A32B8470130E6D001367D
:1051F000D1E70000F0B58BB006920A004332079366
:10520000059004920A7E0C00109B782A09D8622A25
:105210000BD8002A00D1BEE07C490391582A00D166
:1052200093E026004236327022E0100063381528E1
:10523000F7D8FAF771FF16001F00F6FFF6FFF6FF2A
:10524000F6FF1F00F6FFF6FFF6FFF6FFA30036009D
:105250008300F6FFF6FFB400F6FF3600F6FFF6FF18
:10526000870026001A684236111D196013683370D2
:105270000123A2E018680968021D0D060BD5056818
:105280001A60002D03DA2D23049A6D4213705F4BD0
:105290000A2703931BE005681A604906F1D52DB271
:1052A000EFE70D681968081D18602E0601D50D6816
:1052B00003E06D06FBD50D68ADB2544B0827039390
:1052C0006F2A00D002372300002243331A7063682C
:1052D000A360002B03DB042122688A432260002D97
:1052E00002D1049E002B0CD0049E28003900FAF74E
:1052F000A3FF039B013E5B5C33702B0005009F42C4
:10530000F3D9082F09D12368DB0706D56268236922
:105310009A4202DC3023013E3370049B9B1B2361C5
:10532000079B210000930598069B09AAFFF7F2FE50
:10533000013047D1012040420BB0F0BD2022096866
:105340000A432260782232490391210045310A70D4
:105350001968226820C9100602D4500600D5ADB2E3
:105360001960D30702D52023134323601027002D93
:10537000A9D12022236893432360A4E71A680D680B
:10538000101D4969186013682E0601D5196002E0E6
:105390006D06FBD519800023049E2361C0E71A68BF
:1053A000111D1960166800213000626800F058F87D
:1053B000002801D0801B6060636823610023049A89
:1053C0001370ADE73200236906990598079DA84739
:1053D0000130AFD023689B0715D4099BE068984241
:1053E000AADA1800A8E72200012306990598079E6B
:1053F0001932B04701309DD00135E368099A9B1AF4
:10540000AB42F0DCE9E70025F7E7C046B4570008F7
:10541000C557000810B5884202D98B18984203D3AB
:10542000002307E08B5C8354013AFBD210BDCC5CB7
:10543000C45401339A42FAD1F8E70000002370B552
:10544000064D040008002B60FDF726F8431C03D12D
:105450002B68002B00D0236070BDC04620050020C3
:10546000C9B28218904201D10020704703788B4264
:10547000FBD00130F6E7F7B507000E001400002955
:1054800005D11100FFF752FC05002800FEBD002ADF
:1054900003D1FFF7DFFB2500F7E700F01BF80190D1
:1054A000844203D835004308A342EED321003800DC
:1054B000FFF73CFC051EE8D0019B22009C4200D96E
:1054C0001A0031002800FFF7BBFB31003800FFF75E
:1054D000C1FBDAE70B1F1B68181F002B01DA0B5802
:1054E000C0187047F8B5C046F8BC08BC9E46704767
:0C54F000F8B5C046F8BC08BC9E467047EA
:1054FC0000000000000000000000000000000000A0
:10550C00000000003A7573720000000000000000FB
:10551C0000000000000000000000000043686B5316
:10552C00756D4572720000005B000000256C750003
:10553C005D000000454550524F4D20697320636C4F
:10554C0065617264000000006E7073005646320094
:10555C0056463300437274005647310056473200AA
:10556C0056473300564754004946310049463200ED
:10557C0049463300456E41004947310049473200E6
:10558C00494733004D4245005046310050463200E9
:10559C0050463300504654004547310045473200D1
:1055AC0045473300455031004550330047467200A3
:1055BC00524D6D00576174005473740045503200A5
:1055CC0052656C0042757A0050775200507750004B
:1055DC005665720049434C0052434C0050774100D1
:1055EC00456E500046727100504661004D6F64006C
:1055FC0052454C00706173002323232323232A007C
:10560C0054656C004F4B5F0055736572204E6F20D4
:10561C00000000003A000000456E74657220596F5E
:10562C0075722050617373776F72643A00000000DA
:10563C002A0000005475726E204F66662050756DFE
:10564C00703F00005965732020202020202020204E
:10565C002020202020204E6F00000000205369677E
:10566C006D6120456E67696E656572696E670000D5
:10567C00536D6172742049727269676174696F6EDF
:10568C00205379730000000044657369676E65648C
:10569C002062793A200000002020205369676D6158
:1056AC0020522644205465616D0000004E4F4B0083
:1056BC0055736572204E4F200000000052756E200D
:1056CC0054696D65203A00002820290020202020F4
:1056DC0020202020202000004E2F410030303A3076
:1056EC00303A30300000000054696D653A202020BB
:1056FC002020202020200000446174653A20000006
:10570C0041796D616E000000536865726966000036
:10571C004D61686D6F756400426173656D000000CA
:10572C005361796564000000536166776174000011
:10573C00416C61610000000041686D65640000000F
:10574C004D6F6E00547565005765640054687500A4
:10575C00467269005361740053756E0000000000BE
:10576C000000000001020304060708090000000005
:10577C000102030402030405060708090A0B0C0DB9
:10578C000E0F10100102030405060708090A0B0C82
:10579C000D0E0F10040802232D302B2000686C4CCA
:1057AC00006566674546470030313233343536374D
:1057BC003839414243444546003031323334353672
:0C57CC00373839616263646566000000D4
:0457D800E9000008DC
:0457DC00C100000800
:1057E0000000004800080048000800480004004885
:1057F000000400480000004800000048000800487D
:1058000000080048000400480010000280000080EA
:1058100000200008000100014000004001320000AB
:105820000C570008145700081C570008245700089C
:105830002C570008345700083C570008445700080C
:1058400000127A00010000000400000000000000C7
:10585000E803002050040020B804002000000000ED
:105860000000000000000000000000000000000038
:105870000000000000000000000000000000000028
:105880000000000000000000000000000000000018
:0C58900000000000000000006C00002080
:04000005080024E1EA
:00000001FF
